{
	"contracts/functions.sol": {
		"Function": {
			"abi": [
				{
					"inputs": [],
					"name": "AssignValue",
					"outputs": [
						{
							"internalType": "uint256",
							"name": "x",
							"type": "uint256"
						},
						{
							"internalType": "bool",
							"name": "y",
							"type": "bool"
						},
						{
							"internalType": "int256",
							"name": "z",
							"type": "int256"
						}
					],
					"stateMutability": "pure",
					"type": "function"
				},
				{
					"inputs": [],
					"name": "returnMultiple",
					"outputs": [
						{
							"internalType": "uint256",
							"name": "",
							"type": "uint256"
						},
						{
							"internalType": "bool",
							"name": "",
							"type": "bool"
						},
						{
							"internalType": "uint256",
							"name": "",
							"type": "uint256"
						}
					],
					"stateMutability": "pure",
					"type": "function"
				},
				{
					"inputs": [],
					"name": "returnName",
					"outputs": [
						{
							"internalType": "uint256",
							"name": "x",
							"type": "uint256"
						},
						{
							"internalType": "bool",
							"name": "y",
							"type": "bool"
						},
						{
							"internalType": "int256",
							"name": "z",
							"type": "int256"
						}
					],
					"stateMutability": "pure",
					"type": "function"
				}
			],
			"devdoc": {
				"kind": "dev",
				"methods": {},
				"version": 1
			},
			"evm": {
				"assembly": "    /* \"contracts/functions.sol\":58:466  contract Function{... */\n  mstore(0x40, 0x80)\n  callvalue\n  dup1\n  iszero\n  tag_1\n  jumpi\n  0x00\n  dup1\n  revert\ntag_1:\n  pop\n  dataSize(sub_0)\n  dup1\n  dataOffset(sub_0)\n  0x00\n  codecopy\n  0x00\n  return\nstop\n\nsub_0: assembly {\n        /* \"contracts/functions.sol\":58:466  contract Function{... */\n      mstore(0x40, 0x80)\n      callvalue\n      dup1\n      iszero\n      tag_1\n      jumpi\n      0x00\n      dup1\n      revert\n    tag_1:\n      pop\n      jumpi(tag_2, lt(calldatasize, 0x04))\n      shr(0xe0, calldataload(0x00))\n      dup1\n      0x5ea5cabe\n      eq\n      tag_3\n      jumpi\n      dup1\n      0x7367a808\n      eq\n      tag_4\n      jumpi\n      dup1\n      0xe61e4008\n      eq\n      tag_5\n      jumpi\n    tag_2:\n      0x00\n      dup1\n      revert\n        /* \"contracts/functions.sol\":195:296  function returnName() public pure returns(uint x,bool y, int z){... */\n    tag_3:\n      tag_6\n      tag_7\n      jump\t// in\n    tag_6:\n      mload(0x40)\n      tag_8\n      swap4\n      swap3\n      swap2\n      swap1\n      tag_9\n      jump\t// in\n    tag_8:\n      mload(0x40)\n      dup1\n      swap2\n      sub\n      swap1\n      return\n        /* \"contracts/functions.sol\":304:457  function AssignValue() public pure returns(uint x, bool y, int z)... */\n    tag_4:\n      tag_10\n      tag_11\n      jump\t// in\n    tag_10:\n      mload(0x40)\n      tag_12\n      swap4\n      swap3\n      swap2\n      swap1\n      tag_9\n      jump\t// in\n    tag_12:\n      mload(0x40)\n      dup1\n      swap2\n      sub\n      swap1\n      return\n        /* \"contracts/functions.sol\":88:187  function returnMultiple() public pure returns(uint, bool, uint){... */\n    tag_5:\n      tag_13\n      tag_14\n      jump\t// in\n    tag_13:\n      mload(0x40)\n      tag_15\n      swap4\n      swap3\n      swap2\n      swap1\n      tag_16\n      jump\t// in\n    tag_15:\n      mload(0x40)\n      dup1\n      swap2\n      sub\n      swap1\n      return\n        /* \"contracts/functions.sol\":195:296  function returnName() public pure returns(uint x,bool y, int z){... */\n    tag_7:\n        /* \"contracts/functions.sol\":237:243  uint x */\n      0x00\n        /* \"contracts/functions.sol\":244:250  bool y */\n      dup1\n        /* \"contracts/functions.sol\":252:257  int z */\n      0x00\n        /* \"contracts/functions.sol\":276:277  1 */\n      0x01\n        /* \"contracts/functions.sol\":279:283  true */\n      dup1\n        /* \"contracts/functions.sol\":285:287  -1 */\n      0xffffffffffffffffffffffffffffffffffffffffffffffffffffffffffffffff\n        /* \"contracts/functions.sol\":269:288  return(1, true, -1) */\n      swap3\n      pop\n      swap3\n      pop\n      swap3\n      pop\n        /* \"contracts/functions.sol\":195:296  function returnName() public pure returns(uint x,bool y, int z){... */\n      swap1\n      swap2\n      swap3\n      jump\t// out\n        /* \"contracts/functions.sol\":304:457  function AssignValue() public pure returns(uint x, bool y, int z)... */\n    tag_11:\n        /* \"contracts/functions.sol\":347:353  uint x */\n      0x00\n        /* \"contracts/functions.sol\":355:361  bool y */\n      dup1\n        /* \"contracts/functions.sol\":363:368  int z */\n      0x00\n        /* \"contracts/functions.sol\":389:391  30 */\n      0x1e\n        /* \"contracts/functions.sol\":386:391  x =30 */\n      swap3\n      pop\n        /* \"contracts/functions.sol\":404:409  false */\n      0x00\n        /* \"contracts/functions.sol\":402:409  y=false */\n      swap2\n      pop\n        /* \"contracts/functions.sol\":422:425  -10 */\n      0xfffffffffffffffffffffffffffffffffffffffffffffffffffffffffffffff6\n        /* \"contracts/functions.sol\":420:425  z=-10 */\n      swap1\n      pop\n        /* \"contracts/functions.sol\":304:457  function AssignValue() public pure returns(uint x, bool y, int z)... */\n      swap1\n      swap2\n      swap3\n      jump\t// out\n        /* \"contracts/functions.sol\":88:187  function returnMultiple() public pure returns(uint, bool, uint){... */\n    tag_14:\n        /* \"contracts/functions.sol\":134:138  uint */\n      0x00\n        /* \"contracts/functions.sol\":140:144  bool */\n      dup1\n        /* \"contracts/functions.sol\":146:150  uint */\n      0x00\n        /* \"contracts/functions.sol\":169:170  1 */\n      0x01\n        /* \"contracts/functions.sol\":171:175  true */\n      dup1\n        /* \"contracts/functions.sol\":176:178  10 */\n      0x0a\n        /* \"contracts/functions.sol\":162:179  return(1,true,10) */\n      swap3\n      pop\n      swap3\n      pop\n      swap3\n      pop\n        /* \"contracts/functions.sol\":88:187  function returnMultiple() public pure returns(uint, bool, uint){... */\n      swap1\n      swap2\n      swap3\n      jump\t// out\n        /* \"#utility.yul\":7:84   */\n    tag_20:\n        /* \"#utility.yul\":44:51   */\n      0x00\n        /* \"#utility.yul\":73:78   */\n      dup2\n        /* \"#utility.yul\":62:78   */\n      swap1\n      pop\n        /* \"#utility.yul\":7:84   */\n      swap2\n      swap1\n      pop\n      jump\t// out\n        /* \"#utility.yul\":90:208   */\n    tag_21:\n        /* \"#utility.yul\":177:201   */\n      tag_29\n        /* \"#utility.yul\":195:200   */\n      dup2\n        /* \"#utility.yul\":177:201   */\n      tag_20\n      jump\t// in\n    tag_29:\n        /* \"#utility.yul\":172:175   */\n      dup3\n        /* \"#utility.yul\":165:202   */\n      mstore\n        /* \"#utility.yul\":90:208   */\n      pop\n      pop\n      jump\t// out\n        /* \"#utility.yul\":214:304   */\n    tag_22:\n        /* \"#utility.yul\":248:255   */\n      0x00\n        /* \"#utility.yul\":291:296   */\n      dup2\n        /* \"#utility.yul\":284:297   */\n      iszero\n        /* \"#utility.yul\":277:298   */\n      iszero\n        /* \"#utility.yul\":266:298   */\n      swap1\n      pop\n        /* \"#utility.yul\":214:304   */\n      swap2\n      swap1\n      pop\n      jump\t// out\n        /* \"#utility.yul\":310:419   */\n    tag_23:\n        /* \"#utility.yul\":391:412   */\n      tag_32\n        /* \"#utility.yul\":406:411   */\n      dup2\n        /* \"#utility.yul\":391:412   */\n      tag_22\n      jump\t// in\n    tag_32:\n        /* \"#utility.yul\":386:389   */\n      dup3\n        /* \"#utility.yul\":379:413   */\n      mstore\n        /* \"#utility.yul\":310:419   */\n      pop\n      pop\n      jump\t// out\n        /* \"#utility.yul\":425:501   */\n    tag_24:\n        /* \"#utility.yul\":461:468   */\n      0x00\n        /* \"#utility.yul\":490:495   */\n      dup2\n        /* \"#utility.yul\":479:495   */\n      swap1\n      pop\n        /* \"#utility.yul\":425:501   */\n      swap2\n      swap1\n      pop\n      jump\t// out\n        /* \"#utility.yul\":507:622   */\n    tag_25:\n        /* \"#utility.yul\":592:615   */\n      tag_35\n        /* \"#utility.yul\":609:614   */\n      dup2\n        /* \"#utility.yul\":592:615   */\n      tag_24\n      jump\t// in\n    tag_35:\n        /* \"#utility.yul\":587:590   */\n      dup3\n        /* \"#utility.yul\":580:616   */\n      mstore\n        /* \"#utility.yul\":507:622   */\n      pop\n      pop\n      jump\t// out\n        /* \"#utility.yul\":628:1054   */\n    tag_9:\n        /* \"#utility.yul\":769:773   */\n      0x00\n        /* \"#utility.yul\":807:809   */\n      0x60\n        /* \"#utility.yul\":796:805   */\n      dup3\n        /* \"#utility.yul\":792:810   */\n      add\n        /* \"#utility.yul\":784:810   */\n      swap1\n      pop\n        /* \"#utility.yul\":820:891   */\n      tag_37\n        /* \"#utility.yul\":888:889   */\n      0x00\n        /* \"#utility.yul\":877:886   */\n      dup4\n        /* \"#utility.yul\":873:890   */\n      add\n        /* \"#utility.yul\":864:870   */\n      dup7\n        /* \"#utility.yul\":820:891   */\n      tag_21\n      jump\t// in\n    tag_37:\n        /* \"#utility.yul\":901:967   */\n      tag_38\n        /* \"#utility.yul\":963:965   */\n      0x20\n        /* \"#utility.yul\":952:961   */\n      dup4\n        /* \"#utility.yul\":948:966   */\n      add\n        /* \"#utility.yul\":939:945   */\n      dup6\n        /* \"#utility.yul\":901:967   */\n      tag_23\n      jump\t// in\n    tag_38:\n        /* \"#utility.yul\":977:1047   */\n      tag_39\n        /* \"#utility.yul\":1043:1045   */\n      0x40\n        /* \"#utility.yul\":1032:1041   */\n      dup4\n        /* \"#utility.yul\":1028:1046   */\n      add\n        /* \"#utility.yul\":1019:1025   */\n      dup5\n        /* \"#utility.yul\":977:1047   */\n      tag_25\n      jump\t// in\n    tag_39:\n        /* \"#utility.yul\":628:1054   */\n      swap5\n      swap4\n      pop\n      pop\n      pop\n      pop\n      jump\t// out\n        /* \"#utility.yul\":1060:1490   */\n    tag_16:\n        /* \"#utility.yul\":1203:1207   */\n      0x00\n        /* \"#utility.yul\":1241:1243   */\n      0x60\n        /* \"#utility.yul\":1230:1239   */\n      dup3\n        /* \"#utility.yul\":1226:1244   */\n      add\n        /* \"#utility.yul\":1218:1244   */\n      swap1\n      pop\n        /* \"#utility.yul\":1254:1325   */\n      tag_41\n        /* \"#utility.yul\":1322:1323   */\n      0x00\n        /* \"#utility.yul\":1311:1320   */\n      dup4\n        /* \"#utility.yul\":1307:1324   */\n      add\n        /* \"#utility.yul\":1298:1304   */\n      dup7\n        /* \"#utility.yul\":1254:1325   */\n      tag_21\n      jump\t// in\n    tag_41:\n        /* \"#utility.yul\":1335:1401   */\n      tag_42\n        /* \"#utility.yul\":1397:1399   */\n      0x20\n        /* \"#utility.yul\":1386:1395   */\n      dup4\n        /* \"#utility.yul\":1382:1400   */\n      add\n        /* \"#utility.yul\":1373:1379   */\n      dup6\n        /* \"#utility.yul\":1335:1401   */\n      tag_23\n      jump\t// in\n    tag_42:\n        /* \"#utility.yul\":1411:1483   */\n      tag_43\n        /* \"#utility.yul\":1479:1481   */\n      0x40\n        /* \"#utility.yul\":1468:1477   */\n      dup4\n        /* \"#utility.yul\":1464:1482   */\n      add\n        /* \"#utility.yul\":1455:1461   */\n      dup5\n        /* \"#utility.yul\":1411:1483   */\n      tag_21\n      jump\t// in\n    tag_43:\n        /* \"#utility.yul\":1060:1490   */\n      swap5\n      swap4\n      pop\n      pop\n      pop\n      pop\n      jump\t// out\n\n    auxdata: 0xa2646970667358221220679fe2bfb12b4aed2e58923d5e63ab5ce876614f5e05992c019958ffbf4d215f64736f6c63430008110033\n}\n",
				"bytecode": {
					"linkReferences": {},
					"object": "608060405234801561001057600080fd5b50610215806100206000396000f3fe608060405234801561001057600080fd5b50600436106100415760003560e01c80635ea5cabe146100465780637367a80814610066578063e61e400814610086575b600080fd5b61004e6100a6565b60405161005d93929190610171565b60405180910390f35b61006e6100da565b60405161007d93929190610171565b60405180910390f35b61008e61010f565b60405161009d939291906101a8565b60405180910390f35b60008060006001807fffffffffffffffffffffffffffffffffffffffffffffffffffffffffffffffff925092509250909192565b6000806000601e9250600091507ffffffffffffffffffffffffffffffffffffffffffffffffffffffffffffffff69050909192565b6000806000600180600a925092509250909192565b6000819050919050565b61013781610124565b82525050565b60008115159050919050565b6101528161013d565b82525050565b6000819050919050565b61016b81610158565b82525050565b6000606082019050610186600083018661012e565b6101936020830185610149565b6101a06040830184610162565b949350505050565b60006060820190506101bd600083018661012e565b6101ca6020830185610149565b6101d7604083018461012e565b94935050505056fea2646970667358221220679fe2bfb12b4aed2e58923d5e63ab5ce876614f5e05992c019958ffbf4d215f64736f6c63430008110033",
					"opcodes": "PUSH1 0x80 PUSH1 0x40 MSTORE CALLVALUE DUP1 ISZERO PUSH2 0x10 JUMPI PUSH1 0x0 DUP1 REVERT JUMPDEST POP PUSH2 0x215 DUP1 PUSH2 0x20 PUSH1 0x0 CODECOPY PUSH1 0x0 RETURN INVALID PUSH1 0x80 PUSH1 0x40 MSTORE CALLVALUE DUP1 ISZERO PUSH2 0x10 JUMPI PUSH1 0x0 DUP1 REVERT JUMPDEST POP PUSH1 0x4 CALLDATASIZE LT PUSH2 0x41 JUMPI PUSH1 0x0 CALLDATALOAD PUSH1 0xE0 SHR DUP1 PUSH4 0x5EA5CABE EQ PUSH2 0x46 JUMPI DUP1 PUSH4 0x7367A808 EQ PUSH2 0x66 JUMPI DUP1 PUSH4 0xE61E4008 EQ PUSH2 0x86 JUMPI JUMPDEST PUSH1 0x0 DUP1 REVERT JUMPDEST PUSH2 0x4E PUSH2 0xA6 JUMP JUMPDEST PUSH1 0x40 MLOAD PUSH2 0x5D SWAP4 SWAP3 SWAP2 SWAP1 PUSH2 0x171 JUMP JUMPDEST PUSH1 0x40 MLOAD DUP1 SWAP2 SUB SWAP1 RETURN JUMPDEST PUSH2 0x6E PUSH2 0xDA JUMP JUMPDEST PUSH1 0x40 MLOAD PUSH2 0x7D SWAP4 SWAP3 SWAP2 SWAP1 PUSH2 0x171 JUMP JUMPDEST PUSH1 0x40 MLOAD DUP1 SWAP2 SUB SWAP1 RETURN JUMPDEST PUSH2 0x8E PUSH2 0x10F JUMP JUMPDEST PUSH1 0x40 MLOAD PUSH2 0x9D SWAP4 SWAP3 SWAP2 SWAP1 PUSH2 0x1A8 JUMP JUMPDEST PUSH1 0x40 MLOAD DUP1 SWAP2 SUB SWAP1 RETURN JUMPDEST PUSH1 0x0 DUP1 PUSH1 0x0 PUSH1 0x1 DUP1 PUSH32 0xFFFFFFFFFFFFFFFFFFFFFFFFFFFFFFFFFFFFFFFFFFFFFFFFFFFFFFFFFFFFFFFF SWAP3 POP SWAP3 POP SWAP3 POP SWAP1 SWAP2 SWAP3 JUMP JUMPDEST PUSH1 0x0 DUP1 PUSH1 0x0 PUSH1 0x1E SWAP3 POP PUSH1 0x0 SWAP2 POP PUSH32 0xFFFFFFFFFFFFFFFFFFFFFFFFFFFFFFFFFFFFFFFFFFFFFFFFFFFFFFFFFFFFFFF6 SWAP1 POP SWAP1 SWAP2 SWAP3 JUMP JUMPDEST PUSH1 0x0 DUP1 PUSH1 0x0 PUSH1 0x1 DUP1 PUSH1 0xA SWAP3 POP SWAP3 POP SWAP3 POP SWAP1 SWAP2 SWAP3 JUMP JUMPDEST PUSH1 0x0 DUP2 SWAP1 POP SWAP2 SWAP1 POP JUMP JUMPDEST PUSH2 0x137 DUP2 PUSH2 0x124 JUMP JUMPDEST DUP3 MSTORE POP POP JUMP JUMPDEST PUSH1 0x0 DUP2 ISZERO ISZERO SWAP1 POP SWAP2 SWAP1 POP JUMP JUMPDEST PUSH2 0x152 DUP2 PUSH2 0x13D JUMP JUMPDEST DUP3 MSTORE POP POP JUMP JUMPDEST PUSH1 0x0 DUP2 SWAP1 POP SWAP2 SWAP1 POP JUMP JUMPDEST PUSH2 0x16B DUP2 PUSH2 0x158 JUMP JUMPDEST DUP3 MSTORE POP POP JUMP JUMPDEST PUSH1 0x0 PUSH1 0x60 DUP3 ADD SWAP1 POP PUSH2 0x186 PUSH1 0x0 DUP4 ADD DUP7 PUSH2 0x12E JUMP JUMPDEST PUSH2 0x193 PUSH1 0x20 DUP4 ADD DUP6 PUSH2 0x149 JUMP JUMPDEST PUSH2 0x1A0 PUSH1 0x40 DUP4 ADD DUP5 PUSH2 0x162 JUMP JUMPDEST SWAP5 SWAP4 POP POP POP POP JUMP JUMPDEST PUSH1 0x0 PUSH1 0x60 DUP3 ADD SWAP1 POP PUSH2 0x1BD PUSH1 0x0 DUP4 ADD DUP7 PUSH2 0x12E JUMP JUMPDEST PUSH2 0x1CA PUSH1 0x20 DUP4 ADD DUP6 PUSH2 0x149 JUMP JUMPDEST PUSH2 0x1D7 PUSH1 0x40 DUP4 ADD DUP5 PUSH2 0x12E JUMP JUMPDEST SWAP5 SWAP4 POP POP POP POP JUMP INVALID LOG2 PUSH5 0x6970667358 0x22 SLT KECCAK256 PUSH8 0x9FE2BFB12B4AED2E PC SWAP3 RETURNDATASIZE 0x5E PUSH4 0xAB5CE876 PUSH2 0x4F5E SDIV SWAP10 0x2C ADD SWAP10 PC SELFDESTRUCT 0xBF 0x4D 0x21 0x5F PUSH5 0x736F6C6343 STOP ADDMOD GT STOP CALLER "
				},
				"gasEstimates": {
					"creation": {
						"codeDepositCost": "106600",
						"executionCost": "153",
						"totalCost": "106753"
					},
					"external": {
						"AssignValue()": "571",
						"returnMultiple()": "infinite",
						"returnName()": "549"
					}
				},
				"methodIdentifiers": {
					"AssignValue()": "7367a808",
					"returnMultiple()": "e61e4008",
					"returnName()": "5ea5cabe"
				}
			},
			"storageLayout": {
				"storage": [],
				"types": null
			},
			"userdoc": {
				"kind": "user",
				"methods": {},
				"version": 1
			}
		}
	}
}