{
	"contracts/events.sol": {
		"EventLog": {
			"abi": [
				{
					"anonymous": false,
					"inputs": [],
					"name": "Event2",
					"type": "event"
				},
				{
					"anonymous": false,
					"inputs": [
						{
							"indexed": true,
							"internalType": "address",
							"name": "sender",
							"type": "address"
						},
						{
							"indexed": false,
							"internalType": "string",
							"name": "message",
							"type": "string"
						},
						{
							"indexed": false,
							"internalType": "uint256",
							"name": "id",
							"type": "uint256"
						},
						{
							"indexed": false,
							"internalType": "uint256",
							"name": "b",
							"type": "uint256"
						}
					],
					"name": "Log",
					"type": "event"
				},
				{
					"inputs": [],
					"name": "testEventWorking",
					"outputs": [],
					"stateMutability": "nonpayable",
					"type": "function"
				}
			],
			"devdoc": {
				"kind": "dev",
				"methods": {},
				"version": 1
			},
			"evm": {
				"assembly": "    /* \"contracts/events.sol\":60:740  contract EventLog{... */\n  mstore(0x40, 0x80)\n  callvalue\n  dup1\n  iszero\n  tag_1\n  jumpi\n  0x00\n  dup1\n  revert\ntag_1:\n  pop\n  dataSize(sub_0)\n  dup1\n  dataOffset(sub_0)\n  0x00\n  codecopy\n  0x00\n  return\nstop\n\nsub_0: assembly {\n        /* \"contracts/events.sol\":60:740  contract EventLog{... */\n      mstore(0x40, 0x80)\n      callvalue\n      dup1\n      iszero\n      tag_1\n      jumpi\n      0x00\n      dup1\n      revert\n    tag_1:\n      pop\n      jumpi(tag_2, lt(calldatasize, 0x04))\n      shr(0xe0, calldataload(0x00))\n      dup1\n      0x8a173ce9\n      eq\n      tag_3\n      jumpi\n    tag_2:\n      0x00\n      dup1\n      revert\n        /* \"contracts/events.sol\":531:736  function testEventWorking() public {... */\n    tag_3:\n      tag_4\n      tag_5\n      jump\t// in\n    tag_4:\n      stop\n    tag_5:\n        /* \"contracts/events.sol\":596:606  msg.sender */\n      caller\n        /* \"contracts/events.sol\":592:635  Log(msg.sender,\"Blockchain is awesome\",4,6) */\n      0xffffffffffffffffffffffffffffffffffffffff\n      and\n      0xd6593c605d879c4cfcbefa226bf9b8647242f0f91af73ea4f23699628ab5a9fa\n        /* \"contracts/events.sol\":631:632  4 */\n      0x04\n        /* \"contracts/events.sol\":633:634  6 */\n      0x06\n        /* \"contracts/events.sol\":592:635  Log(msg.sender,\"Blockchain is awesome\",4,6) */\n      mload(0x40)\n      tag_7\n      swap3\n      swap2\n      swap1\n      tag_8\n      jump\t// in\n    tag_7:\n      mload(0x40)\n      dup1\n      swap2\n      sub\n      swap1\n      log2\n        /* \"contracts/events.sol\":656:666  msg.sender */\n      caller\n        /* \"contracts/events.sol\":652:702  Log(msg.sender,\"user created successfully!!!\",4,6) */\n      0xffffffffffffffffffffffffffffffffffffffff\n      and\n      0xd6593c605d879c4cfcbefa226bf9b8647242f0f91af73ea4f23699628ab5a9fa\n        /* \"contracts/events.sol\":698:699  4 */\n      0x04\n        /* \"contracts/events.sol\":700:701  6 */\n      0x06\n        /* \"contracts/events.sol\":652:702  Log(msg.sender,\"user created successfully!!!\",4,6) */\n      mload(0x40)\n      tag_9\n      swap3\n      swap2\n      swap1\n      tag_10\n      jump\t// in\n    tag_9:\n      mload(0x40)\n      dup1\n      swap2\n      sub\n      swap1\n      log2\n        /* \"contracts/events.sol\":719:727  Event2() */\n      0xf8eb641b4da774cab432e72f24b258ec539677496d7f9ec48fcbb16fda0e4425\n      mload(0x40)\n      mload(0x40)\n      dup1\n      swap2\n      sub\n      swap1\n      log1\n        /* \"contracts/events.sol\":531:736  function testEventWorking() public {... */\n      jump\t// out\n        /* \"#utility.yul\":7:176   */\n    tag_11:\n        /* \"#utility.yul\":91:102   */\n      0x00\n        /* \"#utility.yul\":125:131   */\n      dup3\n        /* \"#utility.yul\":120:123   */\n      dup3\n        /* \"#utility.yul\":113:132   */\n      mstore\n        /* \"#utility.yul\":165:169   */\n      0x20\n        /* \"#utility.yul\":160:163   */\n      dup3\n        /* \"#utility.yul\":156:170   */\n      add\n        /* \"#utility.yul\":141:170   */\n      swap1\n      pop\n        /* \"#utility.yul\":7:176   */\n      swap3\n      swap2\n      pop\n      pop\n      jump\t// out\n        /* \"#utility.yul\":182:353   */\n    tag_12:\n        /* \"#utility.yul\":322:345   */\n      0x426c6f636b636861696e20697320617765736f6d650000000000000000000000\n        /* \"#utility.yul\":318:319   */\n      0x00\n        /* \"#utility.yul\":310:316   */\n      dup3\n        /* \"#utility.yul\":306:320   */\n      add\n        /* \"#utility.yul\":299:346   */\n      mstore\n        /* \"#utility.yul\":182:353   */\n      pop\n      jump\t// out\n        /* \"#utility.yul\":359:725   */\n    tag_13:\n        /* \"#utility.yul\":501:504   */\n      0x00\n        /* \"#utility.yul\":522:589   */\n      tag_28\n        /* \"#utility.yul\":586:588   */\n      0x15\n        /* \"#utility.yul\":581:584   */\n      dup4\n        /* \"#utility.yul\":522:589   */\n      tag_11\n      jump\t// in\n    tag_28:\n        /* \"#utility.yul\":515:589   */\n      swap2\n      pop\n        /* \"#utility.yul\":598:691   */\n      tag_29\n        /* \"#utility.yul\":687:690   */\n      dup3\n        /* \"#utility.yul\":598:691   */\n      tag_12\n      jump\t// in\n    tag_29:\n        /* \"#utility.yul\":716:718   */\n      0x20\n        /* \"#utility.yul\":711:714   */\n      dup3\n        /* \"#utility.yul\":707:719   */\n      add\n        /* \"#utility.yul\":700:719   */\n      swap1\n      pop\n        /* \"#utility.yul\":359:725   */\n      swap2\n      swap1\n      pop\n      jump\t// out\n        /* \"#utility.yul\":731:816   */\n    tag_14:\n        /* \"#utility.yul\":776:783   */\n      0x00\n        /* \"#utility.yul\":805:810   */\n      dup2\n        /* \"#utility.yul\":794:810   */\n      swap1\n      pop\n        /* \"#utility.yul\":731:816   */\n      swap2\n      swap1\n      pop\n      jump\t// out\n        /* \"#utility.yul\":822:899   */\n    tag_15:\n        /* \"#utility.yul\":859:866   */\n      0x00\n        /* \"#utility.yul\":888:893   */\n      dup2\n        /* \"#utility.yul\":877:893   */\n      swap1\n      pop\n        /* \"#utility.yul\":822:899   */\n      swap2\n      swap1\n      pop\n      jump\t// out\n        /* \"#utility.yul\":905:965   */\n    tag_16:\n        /* \"#utility.yul\":933:936   */\n      0x00\n        /* \"#utility.yul\":954:959   */\n      dup2\n        /* \"#utility.yul\":947:959   */\n      swap1\n      pop\n        /* \"#utility.yul\":905:965   */\n      swap2\n      swap1\n      pop\n      jump\t// out\n        /* \"#utility.yul\":971:1129   */\n    tag_17:\n        /* \"#utility.yul\":1029:1038   */\n      0x00\n        /* \"#utility.yul\":1062:1123   */\n      tag_34\n        /* \"#utility.yul\":1080:1122   */\n      tag_35\n        /* \"#utility.yul\":1089:1121   */\n      tag_36\n        /* \"#utility.yul\":1115:1120   */\n      dup5\n        /* \"#utility.yul\":1089:1121   */\n      tag_14\n      jump\t// in\n    tag_36:\n        /* \"#utility.yul\":1080:1122   */\n      tag_16\n      jump\t// in\n    tag_35:\n        /* \"#utility.yul\":1062:1123   */\n      tag_15\n      jump\t// in\n    tag_34:\n        /* \"#utility.yul\":1049:1123   */\n      swap1\n      pop\n        /* \"#utility.yul\":971:1129   */\n      swap2\n      swap1\n      pop\n      jump\t// out\n        /* \"#utility.yul\":1135:1282   */\n    tag_18:\n        /* \"#utility.yul\":1230:1275   */\n      tag_38\n        /* \"#utility.yul\":1269:1274   */\n      dup2\n        /* \"#utility.yul\":1230:1275   */\n      tag_17\n      jump\t// in\n    tag_38:\n        /* \"#utility.yul\":1225:1228   */\n      dup3\n        /* \"#utility.yul\":1218:1276   */\n      mstore\n        /* \"#utility.yul\":1135:1282   */\n      pop\n      pop\n      jump\t// out\n        /* \"#utility.yul\":1288:1373   */\n    tag_19:\n        /* \"#utility.yul\":1333:1340   */\n      0x00\n        /* \"#utility.yul\":1362:1367   */\n      dup2\n        /* \"#utility.yul\":1351:1367   */\n      swap1\n      pop\n        /* \"#utility.yul\":1288:1373   */\n      swap2\n      swap1\n      pop\n      jump\t// out\n        /* \"#utility.yul\":1379:1537   */\n    tag_20:\n        /* \"#utility.yul\":1437:1446   */\n      0x00\n        /* \"#utility.yul\":1470:1531   */\n      tag_41\n        /* \"#utility.yul\":1488:1530   */\n      tag_42\n        /* \"#utility.yul\":1497:1529   */\n      tag_43\n        /* \"#utility.yul\":1523:1528   */\n      dup5\n        /* \"#utility.yul\":1497:1529   */\n      tag_19\n      jump\t// in\n    tag_43:\n        /* \"#utility.yul\":1488:1530   */\n      tag_16\n      jump\t// in\n    tag_42:\n        /* \"#utility.yul\":1470:1531   */\n      tag_15\n      jump\t// in\n    tag_41:\n        /* \"#utility.yul\":1457:1531   */\n      swap1\n      pop\n        /* \"#utility.yul\":1379:1537   */\n      swap2\n      swap1\n      pop\n      jump\t// out\n        /* \"#utility.yul\":1543:1690   */\n    tag_21:\n        /* \"#utility.yul\":1638:1683   */\n      tag_45\n        /* \"#utility.yul\":1677:1682   */\n      dup2\n        /* \"#utility.yul\":1638:1683   */\n      tag_20\n      jump\t// in\n    tag_45:\n        /* \"#utility.yul\":1633:1636   */\n      dup3\n        /* \"#utility.yul\":1626:1684   */\n      mstore\n        /* \"#utility.yul\":1543:1690   */\n      pop\n      pop\n      jump\t// out\n        /* \"#utility.yul\":1696:2367   */\n    tag_8:\n        /* \"#utility.yul\":1934:1938   */\n      0x00\n        /* \"#utility.yul\":1972:1974   */\n      0x60\n        /* \"#utility.yul\":1961:1970   */\n      dup3\n        /* \"#utility.yul\":1957:1975   */\n      add\n        /* \"#utility.yul\":1949:1975   */\n      swap1\n      pop\n        /* \"#utility.yul\":2021:2030   */\n      dup2\n        /* \"#utility.yul\":2015:2019   */\n      dup2\n        /* \"#utility.yul\":2011:2031   */\n      sub\n        /* \"#utility.yul\":2007:2008   */\n      0x00\n        /* \"#utility.yul\":1996:2005   */\n      dup4\n        /* \"#utility.yul\":1992:2009   */\n      add\n        /* \"#utility.yul\":1985:2032   */\n      mstore\n        /* \"#utility.yul\":2049:2180   */\n      tag_47\n        /* \"#utility.yul\":2175:2179   */\n      dup2\n        /* \"#utility.yul\":2049:2180   */\n      tag_13\n      jump\t// in\n    tag_47:\n        /* \"#utility.yul\":2041:2180   */\n      swap1\n      pop\n        /* \"#utility.yul\":2190:2270   */\n      tag_48\n        /* \"#utility.yul\":2266:2268   */\n      0x20\n        /* \"#utility.yul\":2255:2264   */\n      dup4\n        /* \"#utility.yul\":2251:2269   */\n      add\n        /* \"#utility.yul\":2242:2248   */\n      dup6\n        /* \"#utility.yul\":2190:2270   */\n      tag_18\n      jump\t// in\n    tag_48:\n        /* \"#utility.yul\":2280:2360   */\n      tag_49\n        /* \"#utility.yul\":2356:2358   */\n      0x40\n        /* \"#utility.yul\":2345:2354   */\n      dup4\n        /* \"#utility.yul\":2341:2359   */\n      add\n        /* \"#utility.yul\":2332:2338   */\n      dup5\n        /* \"#utility.yul\":2280:2360   */\n      tag_21\n      jump\t// in\n    tag_49:\n        /* \"#utility.yul\":1696:2367   */\n      swap4\n      swap3\n      pop\n      pop\n      pop\n      jump\t// out\n        /* \"#utility.yul\":2373:2551   */\n    tag_22:\n        /* \"#utility.yul\":2513:2543   */\n      0x757365722063726561746564207375636365737366756c6c7921212100000000\n        /* \"#utility.yul\":2509:2510   */\n      0x00\n        /* \"#utility.yul\":2501:2507   */\n      dup3\n        /* \"#utility.yul\":2497:2511   */\n      add\n        /* \"#utility.yul\":2490:2544   */\n      mstore\n        /* \"#utility.yul\":2373:2551   */\n      pop\n      jump\t// out\n        /* \"#utility.yul\":2557:2923   */\n    tag_23:\n        /* \"#utility.yul\":2699:2702   */\n      0x00\n        /* \"#utility.yul\":2720:2787   */\n      tag_52\n        /* \"#utility.yul\":2784:2786   */\n      0x1c\n        /* \"#utility.yul\":2779:2782   */\n      dup4\n        /* \"#utility.yul\":2720:2787   */\n      tag_11\n      jump\t// in\n    tag_52:\n        /* \"#utility.yul\":2713:2787   */\n      swap2\n      pop\n        /* \"#utility.yul\":2796:2889   */\n      tag_53\n        /* \"#utility.yul\":2885:2888   */\n      dup3\n        /* \"#utility.yul\":2796:2889   */\n      tag_22\n      jump\t// in\n    tag_53:\n        /* \"#utility.yul\":2914:2916   */\n      0x20\n        /* \"#utility.yul\":2909:2912   */\n      dup3\n        /* \"#utility.yul\":2905:2917   */\n      add\n        /* \"#utility.yul\":2898:2917   */\n      swap1\n      pop\n        /* \"#utility.yul\":2557:2923   */\n      swap2\n      swap1\n      pop\n      jump\t// out\n        /* \"#utility.yul\":2929:3600   */\n    tag_10:\n        /* \"#utility.yul\":3167:3171   */\n      0x00\n        /* \"#utility.yul\":3205:3207   */\n      0x60\n        /* \"#utility.yul\":3194:3203   */\n      dup3\n        /* \"#utility.yul\":3190:3208   */\n      add\n        /* \"#utility.yul\":3182:3208   */\n      swap1\n      pop\n        /* \"#utility.yul\":3254:3263   */\n      dup2\n        /* \"#utility.yul\":3248:3252   */\n      dup2\n        /* \"#utility.yul\":3244:3264   */\n      sub\n        /* \"#utility.yul\":3240:3241   */\n      0x00\n        /* \"#utility.yul\":3229:3238   */\n      dup4\n        /* \"#utility.yul\":3225:3242   */\n      add\n        /* \"#utility.yul\":3218:3265   */\n      mstore\n        /* \"#utility.yul\":3282:3413   */\n      tag_55\n        /* \"#utility.yul\":3408:3412   */\n      dup2\n        /* \"#utility.yul\":3282:3413   */\n      tag_23\n      jump\t// in\n    tag_55:\n        /* \"#utility.yul\":3274:3413   */\n      swap1\n      pop\n        /* \"#utility.yul\":3423:3503   */\n      tag_56\n        /* \"#utility.yul\":3499:3501   */\n      0x20\n        /* \"#utility.yul\":3488:3497   */\n      dup4\n        /* \"#utility.yul\":3484:3502   */\n      add\n        /* \"#utility.yul\":3475:3481   */\n      dup6\n        /* \"#utility.yul\":3423:3503   */\n      tag_18\n      jump\t// in\n    tag_56:\n        /* \"#utility.yul\":3513:3593   */\n      tag_57\n        /* \"#utility.yul\":3589:3591   */\n      0x40\n        /* \"#utility.yul\":3578:3587   */\n      dup4\n        /* \"#utility.yul\":3574:3592   */\n      add\n        /* \"#utility.yul\":3565:3571   */\n      dup5\n        /* \"#utility.yul\":3513:3593   */\n      tag_21\n      jump\t// in\n    tag_57:\n        /* \"#utility.yul\":2929:3600   */\n      swap4\n      swap3\n      pop\n      pop\n      pop\n      jump\t// out\n\n    auxdata: 0xa264697066735822122059170fd65b3172f81279c508857392a14935a3a968a78e975b802604e81de4e564736f6c63430008120033\n}\n",
				"bytecode": {
					"linkReferences": {},
					"object": "608060405234801561001057600080fd5b506102ed806100206000396000f3fe608060405234801561001057600080fd5b506004361061002b5760003560e01c80638a173ce914610030575b600080fd5b61003861003a565b005b3373ffffffffffffffffffffffffffffffffffffffff167fd6593c605d879c4cfcbefa226bf9b8647242f0f91af73ea4f23699628ab5a9fa600460066040516100849291906101f3565b60405180910390a23373ffffffffffffffffffffffffffffffffffffffff167fd6593c605d879c4cfcbefa226bf9b8647242f0f91af73ea4f23699628ab5a9fa600460066040516100d692919061027b565b60405180910390a27ff8eb641b4da774cab432e72f24b258ec539677496d7f9ec48fcbb16fda0e442560405160405180910390a1565b600082825260208201905092915050565b7f426c6f636b636861696e20697320617765736f6d650000000000000000000000600082015250565b600061015360158361010c565b915061015e8261011d565b602082019050919050565b6000819050919050565b6000819050919050565b6000819050919050565b60006101a261019d61019884610169565b61017d565b610173565b9050919050565b6101b281610187565b82525050565b6000819050919050565b60006101dd6101d86101d3846101b8565b61017d565b610173565b9050919050565b6101ed816101c2565b82525050565b6000606082019050818103600083015261020c81610146565b905061021b60208301856101a9565b61022860408301846101e4565b9392505050565b7f757365722063726561746564207375636365737366756c6c7921212100000000600082015250565b6000610265601c8361010c565b91506102708261022f565b602082019050919050565b6000606082019050818103600083015261029481610258565b90506102a360208301856101a9565b6102b060408301846101e4565b939250505056fea264697066735822122059170fd65b3172f81279c508857392a14935a3a968a78e975b802604e81de4e564736f6c63430008120033",
					"opcodes": "PUSH1 0x80 PUSH1 0x40 MSTORE CALLVALUE DUP1 ISZERO PUSH2 0x10 JUMPI PUSH1 0x0 DUP1 REVERT JUMPDEST POP PUSH2 0x2ED DUP1 PUSH2 0x20 PUSH1 0x0 CODECOPY PUSH1 0x0 RETURN INVALID PUSH1 0x80 PUSH1 0x40 MSTORE CALLVALUE DUP1 ISZERO PUSH2 0x10 JUMPI PUSH1 0x0 DUP1 REVERT JUMPDEST POP PUSH1 0x4 CALLDATASIZE LT PUSH2 0x2B JUMPI PUSH1 0x0 CALLDATALOAD PUSH1 0xE0 SHR DUP1 PUSH4 0x8A173CE9 EQ PUSH2 0x30 JUMPI JUMPDEST PUSH1 0x0 DUP1 REVERT JUMPDEST PUSH2 0x38 PUSH2 0x3A JUMP JUMPDEST STOP JUMPDEST CALLER PUSH20 0xFFFFFFFFFFFFFFFFFFFFFFFFFFFFFFFFFFFFFFFF AND PUSH32 0xD6593C605D879C4CFCBEFA226BF9B8647242F0F91AF73EA4F23699628AB5A9FA PUSH1 0x4 PUSH1 0x6 PUSH1 0x40 MLOAD PUSH2 0x84 SWAP3 SWAP2 SWAP1 PUSH2 0x1F3 JUMP JUMPDEST PUSH1 0x40 MLOAD DUP1 SWAP2 SUB SWAP1 LOG2 CALLER PUSH20 0xFFFFFFFFFFFFFFFFFFFFFFFFFFFFFFFFFFFFFFFF AND PUSH32 0xD6593C605D879C4CFCBEFA226BF9B8647242F0F91AF73EA4F23699628AB5A9FA PUSH1 0x4 PUSH1 0x6 PUSH1 0x40 MLOAD PUSH2 0xD6 SWAP3 SWAP2 SWAP1 PUSH2 0x27B JUMP JUMPDEST PUSH1 0x40 MLOAD DUP1 SWAP2 SUB SWAP1 LOG2 PUSH32 0xF8EB641B4DA774CAB432E72F24B258EC539677496D7F9EC48FCBB16FDA0E4425 PUSH1 0x40 MLOAD PUSH1 0x40 MLOAD DUP1 SWAP2 SUB SWAP1 LOG1 JUMP JUMPDEST PUSH1 0x0 DUP3 DUP3 MSTORE PUSH1 0x20 DUP3 ADD SWAP1 POP SWAP3 SWAP2 POP POP JUMP JUMPDEST PUSH32 0x426C6F636B636861696E20697320617765736F6D650000000000000000000000 PUSH1 0x0 DUP3 ADD MSTORE POP JUMP JUMPDEST PUSH1 0x0 PUSH2 0x153 PUSH1 0x15 DUP4 PUSH2 0x10C JUMP JUMPDEST SWAP2 POP PUSH2 0x15E DUP3 PUSH2 0x11D JUMP JUMPDEST PUSH1 0x20 DUP3 ADD SWAP1 POP SWAP2 SWAP1 POP JUMP JUMPDEST PUSH1 0x0 DUP2 SWAP1 POP SWAP2 SWAP1 POP JUMP JUMPDEST PUSH1 0x0 DUP2 SWAP1 POP SWAP2 SWAP1 POP JUMP JUMPDEST PUSH1 0x0 DUP2 SWAP1 POP SWAP2 SWAP1 POP JUMP JUMPDEST PUSH1 0x0 PUSH2 0x1A2 PUSH2 0x19D PUSH2 0x198 DUP5 PUSH2 0x169 JUMP JUMPDEST PUSH2 0x17D JUMP JUMPDEST PUSH2 0x173 JUMP JUMPDEST SWAP1 POP SWAP2 SWAP1 POP JUMP JUMPDEST PUSH2 0x1B2 DUP2 PUSH2 0x187 JUMP JUMPDEST DUP3 MSTORE POP POP JUMP JUMPDEST PUSH1 0x0 DUP2 SWAP1 POP SWAP2 SWAP1 POP JUMP JUMPDEST PUSH1 0x0 PUSH2 0x1DD PUSH2 0x1D8 PUSH2 0x1D3 DUP5 PUSH2 0x1B8 JUMP JUMPDEST PUSH2 0x17D JUMP JUMPDEST PUSH2 0x173 JUMP JUMPDEST SWAP1 POP SWAP2 SWAP1 POP JUMP JUMPDEST PUSH2 0x1ED DUP2 PUSH2 0x1C2 JUMP JUMPDEST DUP3 MSTORE POP POP JUMP JUMPDEST PUSH1 0x0 PUSH1 0x60 DUP3 ADD SWAP1 POP DUP2 DUP2 SUB PUSH1 0x0 DUP4 ADD MSTORE PUSH2 0x20C DUP2 PUSH2 0x146 JUMP JUMPDEST SWAP1 POP PUSH2 0x21B PUSH1 0x20 DUP4 ADD DUP6 PUSH2 0x1A9 JUMP JUMPDEST PUSH2 0x228 PUSH1 0x40 DUP4 ADD DUP5 PUSH2 0x1E4 JUMP JUMPDEST SWAP4 SWAP3 POP POP POP JUMP JUMPDEST PUSH32 0x757365722063726561746564207375636365737366756C6C7921212100000000 PUSH1 0x0 DUP3 ADD MSTORE POP JUMP JUMPDEST PUSH1 0x0 PUSH2 0x265 PUSH1 0x1C DUP4 PUSH2 0x10C JUMP JUMPDEST SWAP2 POP PUSH2 0x270 DUP3 PUSH2 0x22F JUMP JUMPDEST PUSH1 0x20 DUP3 ADD SWAP1 POP SWAP2 SWAP1 POP JUMP JUMPDEST PUSH1 0x0 PUSH1 0x60 DUP3 ADD SWAP1 POP DUP2 DUP2 SUB PUSH1 0x0 DUP4 ADD MSTORE PUSH2 0x294 DUP2 PUSH2 0x258 JUMP JUMPDEST SWAP1 POP PUSH2 0x2A3 PUSH1 0x20 DUP4 ADD DUP6 PUSH2 0x1A9 JUMP JUMPDEST PUSH2 0x2B0 PUSH1 0x40 DUP4 ADD DUP5 PUSH2 0x1E4 JUMP JUMPDEST SWAP4 SWAP3 POP POP POP JUMP INVALID LOG2 PUSH5 0x6970667358 0x22 SLT KECCAK256 MSIZE OR 0xF 0xD6 JUMPDEST BALANCE PUSH19 0xF81279C508857392A14935A3A968A78E975B80 0x26 DIV 0xE8 SAR 0xE4 0xE5 PUSH5 0x736F6C6343 STOP ADDMOD SLT STOP CALLER "
				},
				"gasEstimates": {
					"creation": {
						"codeDepositCost": "149800",
						"executionCost": "196",
						"totalCost": "149996"
					},
					"external": {
						"testEventWorking()": "infinite"
					}
				},
				"methodIdentifiers": {
					"testEventWorking()": "8a173ce9"
				}
			},
			"storageLayout": {
				"storage": [],
				"types": null
			},
			"userdoc": {
				"kind": "user",
				"methods": {},
				"version": 1
			}
		}
	}
}