{
	"contracts/ifElse.sol": {
		"IfElse": {
			"abi": [
				{
					"inputs": [
						{
							"internalType": "int256",
							"name": "x",
							"type": "int256"
						}
					],
					"name": "condition",
					"outputs": [
						{
							"internalType": "uint256",
							"name": "",
							"type": "uint256"
						}
					],
					"stateMutability": "pure",
					"type": "function"
				}
			],
			"devdoc": {
				"kind": "dev",
				"methods": {},
				"version": 1
			},
			"evm": {
				"assembly": "    /* \"contracts/ifElse.sol\":59:310  contract IfElse{\r... */\n  mstore(0x40, 0x80)\n  callvalue\n  dup1\n  iszero\n  tag_1\n  jumpi\n  0x00\n  dup1\n  revert\ntag_1:\n  pop\n  dataSize(sub_0)\n  dup1\n  dataOffset(sub_0)\n  0x00\n  codecopy\n  0x00\n  return\nstop\n\nsub_0: assembly {\n        /* \"contracts/ifElse.sol\":59:310  contract IfElse{\r... */\n      mstore(0x40, 0x80)\n      callvalue\n      dup1\n      iszero\n      tag_1\n      jumpi\n      0x00\n      dup1\n      revert\n    tag_1:\n      pop\n      jumpi(tag_2, lt(calldatasize, 0x04))\n      shr(0xe0, calldataload(0x00))\n      dup1\n      0x5b655a90\n      eq\n      tag_3\n      jumpi\n    tag_2:\n      0x00\n      dup1\n      revert\n        /* \"contracts/ifElse.sol\":81:307  function condition(int x) public pure returns(uint){\r... */\n    tag_3:\n      tag_4\n      0x04\n      dup1\n      calldatasize\n      sub\n      dup2\n      add\n      swap1\n      tag_5\n      swap2\n      swap1\n      tag_6\n      jump\t// in\n    tag_5:\n      tag_7\n      jump\t// in\n    tag_4:\n      mload(0x40)\n      tag_8\n      swap2\n      swap1\n      tag_9\n      jump\t// in\n    tag_8:\n      mload(0x40)\n      dup1\n      swap2\n      sub\n      swap1\n      return\n    tag_7:\n        /* \"contracts/ifElse.sol\":127:131  uint */\n      0x00\n        /* \"contracts/ifElse.sol\":148:150  10 */\n      0x0a\n        /* \"contracts/ifElse.sol\":146:147  x */\n      dup3\n        /* \"contracts/ifElse.sol\":146:150  x>10 */\n      sgt\n        /* \"contracts/ifElse.sol\":143:300  if(x>10){\r... */\n      iszero\n      tag_11\n      jumpi\n        /* \"contracts/ifElse.sol\":173:174  0 */\n      0x00\n        /* \"contracts/ifElse.sol\":166:174  return 0 */\n      swap1\n      pop\n      jump(tag_10)\n        /* \"contracts/ifElse.sol\":143:300  if(x>10){\r... */\n    tag_11:\n        /* \"contracts/ifElse.sol\":206:207  0 */\n      0x00\n        /* \"contracts/ifElse.sol\":204:205  x */\n      dup3\n        /* \"contracts/ifElse.sol\":204:207  x>0 */\n      sgt\n        /* \"contracts/ifElse.sol\":204:215  x>0 && x<10 */\n      dup1\n      iszero\n      tag_13\n      jumpi\n      pop\n        /* \"contracts/ifElse.sol\":213:215  10 */\n      0x0a\n        /* \"contracts/ifElse.sol\":211:212  x */\n      dup3\n        /* \"contracts/ifElse.sol\":211:215  x<10 */\n      slt\n        /* \"contracts/ifElse.sol\":204:215  x>0 && x<10 */\n    tag_13:\n        /* \"contracts/ifElse.sol\":201:300  if(x>0 && x<10){\r... */\n      iszero\n      tag_14\n      jumpi\n        /* \"contracts/ifElse.sol\":238:239  1 */\n      0x01\n        /* \"contracts/ifElse.sol\":231:239  return 1 */\n      swap1\n      pop\n      jump(tag_10)\n        /* \"contracts/ifElse.sol\":201:300  if(x>0 && x<10){\r... */\n    tag_14:\n        /* \"contracts/ifElse.sol\":287:288  2 */\n      0x02\n        /* \"contracts/ifElse.sol\":280:288  return 2 */\n      swap1\n      pop\n        /* \"contracts/ifElse.sol\":81:307  function condition(int x) public pure returns(uint){\r... */\n    tag_10:\n      swap2\n      swap1\n      pop\n      jump\t// out\n        /* \"#utility.yul\":7:144   */\n    tag_17:\n        /* \"#utility.yul\":52:57   */\n      0x00\n        /* \"#utility.yul\":90:96   */\n      dup2\n        /* \"#utility.yul\":77:97   */\n      calldataload\n        /* \"#utility.yul\":68:97   */\n      swap1\n      pop\n        /* \"#utility.yul\":106:138   */\n      tag_19\n        /* \"#utility.yul\":132:137   */\n      dup2\n        /* \"#utility.yul\":106:138   */\n      tag_20\n      jump\t// in\n    tag_19:\n        /* \"#utility.yul\":7:144   */\n      swap3\n      swap2\n      pop\n      pop\n      jump\t// out\n        /* \"#utility.yul\":150:477   */\n    tag_6:\n        /* \"#utility.yul\":208:214   */\n      0x00\n        /* \"#utility.yul\":257:259   */\n      0x20\n        /* \"#utility.yul\":245:254   */\n      dup3\n        /* \"#utility.yul\":236:243   */\n      dup5\n        /* \"#utility.yul\":232:255   */\n      sub\n        /* \"#utility.yul\":228:260   */\n      slt\n        /* \"#utility.yul\":225:344   */\n      iszero\n      tag_22\n      jumpi\n        /* \"#utility.yul\":263:342   */\n      tag_23\n      tag_24\n      jump\t// in\n    tag_23:\n        /* \"#utility.yul\":225:344   */\n    tag_22:\n        /* \"#utility.yul\":383:384   */\n      0x00\n        /* \"#utility.yul\":408:460   */\n      tag_25\n        /* \"#utility.yul\":452:459   */\n      dup5\n        /* \"#utility.yul\":443:449   */\n      dup3\n        /* \"#utility.yul\":432:441   */\n      dup6\n        /* \"#utility.yul\":428:450   */\n      add\n        /* \"#utility.yul\":408:460   */\n      tag_17\n      jump\t// in\n    tag_25:\n        /* \"#utility.yul\":398:460   */\n      swap2\n      pop\n        /* \"#utility.yul\":354:470   */\n      pop\n        /* \"#utility.yul\":150:477   */\n      swap3\n      swap2\n      pop\n      pop\n      jump\t// out\n        /* \"#utility.yul\":483:601   */\n    tag_26:\n        /* \"#utility.yul\":570:594   */\n      tag_28\n        /* \"#utility.yul\":588:593   */\n      dup2\n        /* \"#utility.yul\":570:594   */\n      tag_29\n      jump\t// in\n    tag_28:\n        /* \"#utility.yul\":565:568   */\n      dup3\n        /* \"#utility.yul\":558:595   */\n      mstore\n        /* \"#utility.yul\":483:601   */\n      pop\n      pop\n      jump\t// out\n        /* \"#utility.yul\":607:829   */\n    tag_9:\n        /* \"#utility.yul\":700:704   */\n      0x00\n        /* \"#utility.yul\":738:740   */\n      0x20\n        /* \"#utility.yul\":727:736   */\n      dup3\n        /* \"#utility.yul\":723:741   */\n      add\n        /* \"#utility.yul\":715:741   */\n      swap1\n      pop\n        /* \"#utility.yul\":751:822   */\n      tag_31\n        /* \"#utility.yul\":819:820   */\n      0x00\n        /* \"#utility.yul\":808:817   */\n      dup4\n        /* \"#utility.yul\":804:821   */\n      add\n        /* \"#utility.yul\":795:801   */\n      dup5\n        /* \"#utility.yul\":751:822   */\n      tag_26\n      jump\t// in\n    tag_31:\n        /* \"#utility.yul\":607:829   */\n      swap3\n      swap2\n      pop\n      pop\n      jump\t// out\n        /* \"#utility.yul\":916:992   */\n    tag_34:\n        /* \"#utility.yul\":952:959   */\n      0x00\n        /* \"#utility.yul\":981:986   */\n      dup2\n        /* \"#utility.yul\":970:986   */\n      swap1\n      pop\n        /* \"#utility.yul\":916:992   */\n      swap2\n      swap1\n      pop\n      jump\t// out\n        /* \"#utility.yul\":998:1075   */\n    tag_29:\n        /* \"#utility.yul\":1035:1042   */\n      0x00\n        /* \"#utility.yul\":1064:1069   */\n      dup2\n        /* \"#utility.yul\":1053:1069   */\n      swap1\n      pop\n        /* \"#utility.yul\":998:1075   */\n      swap2\n      swap1\n      pop\n      jump\t// out\n        /* \"#utility.yul\":1204:1321   */\n    tag_24:\n        /* \"#utility.yul\":1313:1314   */\n      0x00\n        /* \"#utility.yul\":1310:1311   */\n      dup1\n        /* \"#utility.yul\":1303:1315   */\n      revert\n        /* \"#utility.yul\":1327:1447   */\n    tag_20:\n        /* \"#utility.yul\":1399:1422   */\n      tag_41\n        /* \"#utility.yul\":1416:1421   */\n      dup2\n        /* \"#utility.yul\":1399:1422   */\n      tag_34\n      jump\t// in\n    tag_41:\n        /* \"#utility.yul\":1392:1397   */\n      dup2\n        /* \"#utility.yul\":1389:1423   */\n      eq\n        /* \"#utility.yul\":1379:1441   */\n      tag_42\n      jumpi\n        /* \"#utility.yul\":1437:1438   */\n      0x00\n        /* \"#utility.yul\":1434:1435   */\n      dup1\n        /* \"#utility.yul\":1427:1439   */\n      revert\n        /* \"#utility.yul\":1379:1441   */\n    tag_42:\n        /* \"#utility.yul\":1327:1447   */\n      pop\n      jump\t// out\n\n    auxdata: 0xa2646970667358221220bc128427f1d0b82794bdbea12830b15128a59bb84419eb06def47d603de5633064736f6c63430008070033\n}\n",
				"bytecode": {
					"linkReferences": {},
					"object": "608060405234801561001057600080fd5b5061016e806100206000396000f3fe608060405234801561001057600080fd5b506004361061002b5760003560e01c80635b655a9014610030575b600080fd5b61004a600480360381019061004591906100b1565b610060565b60405161005791906100ed565b60405180910390f35b6000600a8213156100745760009050610097565b6000821380156100845750600a82125b156100925760019050610097565b600290505b919050565b6000813590506100ab81610121565b92915050565b6000602082840312156100c7576100c661011c565b5b60006100d58482850161009c565b91505092915050565b6100e781610112565b82525050565b600060208201905061010260008301846100de565b92915050565b6000819050919050565b6000819050919050565b600080fd5b61012a81610108565b811461013557600080fd5b5056fea2646970667358221220bc128427f1d0b82794bdbea12830b15128a59bb84419eb06def47d603de5633064736f6c63430008070033",
					"opcodes": "PUSH1 0x80 PUSH1 0x40 MSTORE CALLVALUE DUP1 ISZERO PUSH2 0x10 JUMPI PUSH1 0x0 DUP1 REVERT JUMPDEST POP PUSH2 0x16E DUP1 PUSH2 0x20 PUSH1 0x0 CODECOPY PUSH1 0x0 RETURN INVALID PUSH1 0x80 PUSH1 0x40 MSTORE CALLVALUE DUP1 ISZERO PUSH2 0x10 JUMPI PUSH1 0x0 DUP1 REVERT JUMPDEST POP PUSH1 0x4 CALLDATASIZE LT PUSH2 0x2B JUMPI PUSH1 0x0 CALLDATALOAD PUSH1 0xE0 SHR DUP1 PUSH4 0x5B655A90 EQ PUSH2 0x30 JUMPI JUMPDEST PUSH1 0x0 DUP1 REVERT JUMPDEST PUSH2 0x4A PUSH1 0x4 DUP1 CALLDATASIZE SUB DUP2 ADD SWAP1 PUSH2 0x45 SWAP2 SWAP1 PUSH2 0xB1 JUMP JUMPDEST PUSH2 0x60 JUMP JUMPDEST PUSH1 0x40 MLOAD PUSH2 0x57 SWAP2 SWAP1 PUSH2 0xED JUMP JUMPDEST PUSH1 0x40 MLOAD DUP1 SWAP2 SUB SWAP1 RETURN JUMPDEST PUSH1 0x0 PUSH1 0xA DUP3 SGT ISZERO PUSH2 0x74 JUMPI PUSH1 0x0 SWAP1 POP PUSH2 0x97 JUMP JUMPDEST PUSH1 0x0 DUP3 SGT DUP1 ISZERO PUSH2 0x84 JUMPI POP PUSH1 0xA DUP3 SLT JUMPDEST ISZERO PUSH2 0x92 JUMPI PUSH1 0x1 SWAP1 POP PUSH2 0x97 JUMP JUMPDEST PUSH1 0x2 SWAP1 POP JUMPDEST SWAP2 SWAP1 POP JUMP JUMPDEST PUSH1 0x0 DUP2 CALLDATALOAD SWAP1 POP PUSH2 0xAB DUP2 PUSH2 0x121 JUMP JUMPDEST SWAP3 SWAP2 POP POP JUMP JUMPDEST PUSH1 0x0 PUSH1 0x20 DUP3 DUP5 SUB SLT ISZERO PUSH2 0xC7 JUMPI PUSH2 0xC6 PUSH2 0x11C JUMP JUMPDEST JUMPDEST PUSH1 0x0 PUSH2 0xD5 DUP5 DUP3 DUP6 ADD PUSH2 0x9C JUMP JUMPDEST SWAP2 POP POP SWAP3 SWAP2 POP POP JUMP JUMPDEST PUSH2 0xE7 DUP2 PUSH2 0x112 JUMP JUMPDEST DUP3 MSTORE POP POP JUMP JUMPDEST PUSH1 0x0 PUSH1 0x20 DUP3 ADD SWAP1 POP PUSH2 0x102 PUSH1 0x0 DUP4 ADD DUP5 PUSH2 0xDE JUMP JUMPDEST SWAP3 SWAP2 POP POP JUMP JUMPDEST PUSH1 0x0 DUP2 SWAP1 POP SWAP2 SWAP1 POP JUMP JUMPDEST PUSH1 0x0 DUP2 SWAP1 POP SWAP2 SWAP1 POP JUMP JUMPDEST PUSH1 0x0 DUP1 REVERT JUMPDEST PUSH2 0x12A DUP2 PUSH2 0x108 JUMP JUMPDEST DUP2 EQ PUSH2 0x135 JUMPI PUSH1 0x0 DUP1 REVERT JUMPDEST POP JUMP INVALID LOG2 PUSH5 0x6970667358 0x22 SLT KECCAK256 0xBC SLT DUP5 0x27 CALL 0xD0 0xB8 0x27 SWAP5 0xBD 0xBE LOG1 0x28 ADDRESS 0xB1 MLOAD 0x28 0xA5 SWAP12 0xB8 DIFFICULTY NOT 0xEB MOD 0xDE DELEGATECALL PUSH30 0x603DE5633064736F6C634300080700330000000000000000000000000000 "
				},
				"gasEstimates": {
					"creation": {
						"codeDepositCost": "73200",
						"executionCost": "123",
						"totalCost": "73323"
					},
					"external": {
						"condition(int256)": "674"
					}
				},
				"methodIdentifiers": {
					"condition(int256)": "5b655a90"
				}
			},
			"storageLayout": {
				"storage": [],
				"types": null
			},
			"userdoc": {
				"kind": "user",
				"methods": {},
				"version": 1
			}
		}
	}
}