{
	"contracts/functions.sol": {
		"Function": {
			"abi": [
				{
					"inputs": [],
					"name": "AssignValue",
					"outputs": [
						{
							"internalType": "uint256",
							"name": "x",
							"type": "uint256"
						},
						{
							"internalType": "bool",
							"name": "y",
							"type": "bool"
						},
						{
							"internalType": "int256",
							"name": "z",
							"type": "int256"
						}
					],
					"stateMutability": "pure",
					"type": "function"
				},
				{
					"inputs": [],
					"name": "callFuncWithKeyValue",
					"outputs": [
						{
							"internalType": "uint256",
							"name": "",
							"type": "uint256"
						},
						{
							"internalType": "bool",
							"name": "",
							"type": "bool"
						}
					],
					"stateMutability": "pure",
					"type": "function"
				},
				{
					"inputs": [],
					"name": "destructuring",
					"outputs": [
						{
							"internalType": "uint256",
							"name": "",
							"type": "uint256"
						},
						{
							"internalType": "bool",
							"name": "",
							"type": "bool"
						},
						{
							"internalType": "uint256",
							"name": "",
							"type": "uint256"
						},
						{
							"internalType": "uint256",
							"name": "",
							"type": "uint256"
						},
						{
							"internalType": "uint256",
							"name": "",
							"type": "uint256"
						}
					],
					"stateMutability": "pure",
					"type": "function"
				},
				{
					"inputs": [],
					"name": "returnMultiple",
					"outputs": [
						{
							"internalType": "uint256",
							"name": "",
							"type": "uint256"
						},
						{
							"internalType": "bool",
							"name": "",
							"type": "bool"
						},
						{
							"internalType": "uint256",
							"name": "",
							"type": "uint256"
						}
					],
					"stateMutability": "pure",
					"type": "function"
				},
				{
					"inputs": [],
					"name": "returnName",
					"outputs": [
						{
							"internalType": "uint256",
							"name": "x",
							"type": "uint256"
						},
						{
							"internalType": "bool",
							"name": "y",
							"type": "bool"
						},
						{
							"internalType": "int256",
							"name": "z",
							"type": "int256"
						}
					],
					"stateMutability": "pure",
					"type": "function"
				}
			],
			"devdoc": {
				"kind": "dev",
				"methods": {},
				"version": 1
			},
			"evm": {
				"assembly": "    /* \"contracts/functions.sol\":58:827  contract Function{... */\n  mstore(0x40, 0x80)\n  callvalue\n  dup1\n  iszero\n  tag_1\n  jumpi\n  0x00\n  dup1\n  revert\ntag_1:\n  pop\n  dataSize(sub_0)\n  dup1\n  dataOffset(sub_0)\n  0x00\n  codecopy\n  0x00\n  return\nstop\n\nsub_0: assembly {\n        /* \"contracts/functions.sol\":58:827  contract Function{... */\n      mstore(0x40, 0x80)\n      callvalue\n      dup1\n      iszero\n      tag_1\n      jumpi\n      0x00\n      dup1\n      revert\n    tag_1:\n      pop\n      jumpi(tag_2, lt(calldatasize, 0x04))\n      shr(0xe0, calldataload(0x00))\n      dup1\n      0x5ea5cabe\n      eq\n      tag_3\n      jumpi\n      dup1\n      0x72057987\n      eq\n      tag_4\n      jumpi\n      dup1\n      0x7297237f\n      eq\n      tag_5\n      jumpi\n      dup1\n      0x7367a808\n      eq\n      tag_6\n      jumpi\n      dup1\n      0xe61e4008\n      eq\n      tag_7\n      jumpi\n    tag_2:\n      0x00\n      dup1\n      revert\n        /* \"contracts/functions.sol\":196:297  function returnName() public pure returns(uint x,bool y, int z){... */\n    tag_3:\n      tag_8\n      tag_9\n      jump\t// in\n    tag_8:\n      mload(0x40)\n      tag_10\n      swap4\n      swap3\n      swap2\n      swap1\n      tag_11\n      jump\t// in\n    tag_10:\n      mload(0x40)\n      dup1\n      swap2\n      sub\n      swap1\n      return\n        /* \"contracts/functions.sol\":681:824  function callFuncWithKeyValue() public pure returns(uint,bool){... */\n    tag_4:\n      tag_12\n      tag_13\n      jump\t// in\n    tag_12:\n      mload(0x40)\n      tag_14\n      swap3\n      swap2\n      swap1\n      tag_15\n      jump\t// in\n    tag_14:\n      mload(0x40)\n      dup1\n      swap2\n      sub\n      swap1\n      return\n        /* \"contracts/functions.sol\":466:673  function destructuring() public pure returns(uint,bool,uint,uint,uint)... */\n    tag_5:\n      tag_16\n      tag_17\n      jump\t// in\n    tag_16:\n      mload(0x40)\n      tag_18\n      swap6\n      swap5\n      swap4\n      swap3\n      swap2\n      swap1\n      tag_19\n      jump\t// in\n    tag_18:\n      mload(0x40)\n      dup1\n      swap2\n      sub\n      swap1\n      return\n        /* \"contracts/functions.sol\":305:458  function AssignValue() public pure returns(uint x, bool y, int z)... */\n    tag_6:\n      tag_20\n      tag_21\n      jump\t// in\n    tag_20:\n      mload(0x40)\n      tag_22\n      swap4\n      swap3\n      swap2\n      swap1\n      tag_11\n      jump\t// in\n    tag_22:\n      mload(0x40)\n      dup1\n      swap2\n      sub\n      swap1\n      return\n        /* \"contracts/functions.sol\":88:188  function returnMultiple() public pure returns(uint, bool, uint){... */\n    tag_7:\n      tag_23\n      tag_24\n      jump\t// in\n    tag_23:\n      mload(0x40)\n      tag_25\n      swap4\n      swap3\n      swap2\n      swap1\n      tag_26\n      jump\t// in\n    tag_25:\n      mload(0x40)\n      dup1\n      swap2\n      sub\n      swap1\n      return\n        /* \"contracts/functions.sol\":196:297  function returnName() public pure returns(uint x,bool y, int z){... */\n    tag_9:\n        /* \"contracts/functions.sol\":238:244  uint x */\n      0x00\n        /* \"contracts/functions.sol\":245:251  bool y */\n      dup1\n        /* \"contracts/functions.sol\":253:258  int z */\n      0x00\n        /* \"contracts/functions.sol\":277:278  1 */\n      0x01\n        /* \"contracts/functions.sol\":280:284  true */\n      dup1\n        /* \"contracts/functions.sol\":286:288  -1 */\n      0xffffffffffffffffffffffffffffffffffffffffffffffffffffffffffffffff\n        /* \"contracts/functions.sol\":270:289  return(1, true, -1) */\n      swap3\n      pop\n      swap3\n      pop\n      swap3\n      pop\n        /* \"contracts/functions.sol\":196:297  function returnName() public pure returns(uint x,bool y, int z){... */\n      swap1\n      swap2\n      swap3\n      jump\t// out\n        /* \"contracts/functions.sol\":681:824  function callFuncWithKeyValue() public pure returns(uint,bool){... */\n    tag_13:\n        /* \"contracts/functions.sol\":733:737  uint */\n      0x00\n        /* \"contracts/functions.sol\":738:742  bool */\n      dup1\n        /* \"contracts/functions.sol\":681:824  function callFuncWithKeyValue() public pure returns(uint,bool){... */\n      swap2\n      jump\t// out\n        /* \"contracts/functions.sol\":466:673  function destructuring() public pure returns(uint,bool,uint,uint,uint)... */\n    tag_17:\n        /* \"contracts/functions.sol\":511:515  uint */\n      0x00\n        /* \"contracts/functions.sol\":516:520  bool */\n      dup1\n        /* \"contracts/functions.sol\":521:525  uint */\n      0x00\n        /* \"contracts/functions.sol\":526:530  uint */\n      dup1\n        /* \"contracts/functions.sol\":531:535  uint */\n      0x00\n        /* \"contracts/functions.sol\":554:560  uint i */\n      dup1\n        /* \"contracts/functions.sol\":561:567  bool b */\n      0x00\n        /* \"contracts/functions.sol\":569:575  uint j */\n      dup1\n        /* \"contracts/functions.sol\":579:595  returnMultiple() */\n      tag_30\n        /* \"contracts/functions.sol\":579:593  returnMultiple */\n      tag_24\n        /* \"contracts/functions.sol\":579:595  returnMultiple() */\n      jump\t// in\n    tag_30:\n        /* \"contracts/functions.sol\":553:595  (uint i,bool b, uint j) = returnMultiple() */\n      swap3\n      pop\n      swap3\n      pop\n      swap3\n      pop\n        /* \"contracts/functions.sol\":607:613  uint y */\n      0x00\n        /* \"contracts/functions.sol\":615:621  uint z */\n      dup1\n        /* \"contracts/functions.sol\":626:628  10 */\n      0x0a\n        /* \"contracts/functions.sol\":629:631  50 */\n      0x32\n        /* \"contracts/functions.sol\":632:634  20 */\n      0x14\n        /* \"contracts/functions.sol\":606:635  (uint y,,uint z) = (10,50,20) */\n      swap3\n      pop\n      pop\n      swap2\n      pop\n        /* \"contracts/functions.sol\":655:656  i */\n      dup5\n        /* \"contracts/functions.sol\":657:658  b */\n      dup5\n        /* \"contracts/functions.sol\":659:660  j */\n      dup5\n        /* \"contracts/functions.sol\":661:662  y */\n      dup5\n        /* \"contracts/functions.sol\":663:664  z */\n      dup5\n        /* \"contracts/functions.sol\":648:665  return(i,b,j,y,z) */\n      swap10\n      pop\n      swap10\n      pop\n      swap10\n      pop\n      swap10\n      pop\n      swap10\n      pop\n      pop\n      pop\n      pop\n      pop\n      pop\n        /* \"contracts/functions.sol\":466:673  function destructuring() public pure returns(uint,bool,uint,uint,uint)... */\n      swap1\n      swap2\n      swap3\n      swap4\n      swap5\n      jump\t// out\n        /* \"contracts/functions.sol\":305:458  function AssignValue() public pure returns(uint x, bool y, int z)... */\n    tag_21:\n        /* \"contracts/functions.sol\":348:354  uint x */\n      0x00\n        /* \"contracts/functions.sol\":356:362  bool y */\n      dup1\n        /* \"contracts/functions.sol\":364:369  int z */\n      0x00\n        /* \"contracts/functions.sol\":390:392  30 */\n      0x1e\n        /* \"contracts/functions.sol\":387:392  x =30 */\n      swap3\n      pop\n        /* \"contracts/functions.sol\":405:410  false */\n      0x00\n        /* \"contracts/functions.sol\":403:410  y=false */\n      swap2\n      pop\n        /* \"contracts/functions.sol\":423:426  -10 */\n      0xfffffffffffffffffffffffffffffffffffffffffffffffffffffffffffffff6\n        /* \"contracts/functions.sol\":421:426  z=-10 */\n      swap1\n      pop\n        /* \"contracts/functions.sol\":305:458  function AssignValue() public pure returns(uint x, bool y, int z)... */\n      swap1\n      swap2\n      swap3\n      jump\t// out\n        /* \"contracts/functions.sol\":88:188  function returnMultiple() public pure returns(uint, bool, uint){... */\n    tag_24:\n        /* \"contracts/functions.sol\":134:138  uint */\n      0x00\n        /* \"contracts/functions.sol\":140:144  bool */\n      dup1\n        /* \"contracts/functions.sol\":146:150  uint */\n      0x00\n        /* \"contracts/functions.sol\":170:171  1 */\n      0x01\n        /* \"contracts/functions.sol\":172:176  true */\n      dup1\n        /* \"contracts/functions.sol\":177:179  10 */\n      0x0a\n        /* \"contracts/functions.sol\":162:180  return (1,true,10) */\n      swap3\n      pop\n      swap3\n      pop\n      swap3\n      pop\n        /* \"contracts/functions.sol\":88:188  function returnMultiple() public pure returns(uint, bool, uint){... */\n      swap1\n      swap2\n      swap3\n      jump\t// out\n        /* \"#utility.yul\":7:84   */\n    tag_33:\n        /* \"#utility.yul\":44:51   */\n      0x00\n        /* \"#utility.yul\":73:78   */\n      dup2\n        /* \"#utility.yul\":62:78   */\n      swap1\n      pop\n        /* \"#utility.yul\":7:84   */\n      swap2\n      swap1\n      pop\n      jump\t// out\n        /* \"#utility.yul\":90:208   */\n    tag_34:\n        /* \"#utility.yul\":177:201   */\n      tag_42\n        /* \"#utility.yul\":195:200   */\n      dup2\n        /* \"#utility.yul\":177:201   */\n      tag_33\n      jump\t// in\n    tag_42:\n        /* \"#utility.yul\":172:175   */\n      dup3\n        /* \"#utility.yul\":165:202   */\n      mstore\n        /* \"#utility.yul\":90:208   */\n      pop\n      pop\n      jump\t// out\n        /* \"#utility.yul\":214:304   */\n    tag_35:\n        /* \"#utility.yul\":248:255   */\n      0x00\n        /* \"#utility.yul\":291:296   */\n      dup2\n        /* \"#utility.yul\":284:297   */\n      iszero\n        /* \"#utility.yul\":277:298   */\n      iszero\n        /* \"#utility.yul\":266:298   */\n      swap1\n      pop\n        /* \"#utility.yul\":214:304   */\n      swap2\n      swap1\n      pop\n      jump\t// out\n        /* \"#utility.yul\":310:419   */\n    tag_36:\n        /* \"#utility.yul\":391:412   */\n      tag_45\n        /* \"#utility.yul\":406:411   */\n      dup2\n        /* \"#utility.yul\":391:412   */\n      tag_35\n      jump\t// in\n    tag_45:\n        /* \"#utility.yul\":386:389   */\n      dup3\n        /* \"#utility.yul\":379:413   */\n      mstore\n        /* \"#utility.yul\":310:419   */\n      pop\n      pop\n      jump\t// out\n        /* \"#utility.yul\":425:501   */\n    tag_37:\n        /* \"#utility.yul\":461:468   */\n      0x00\n        /* \"#utility.yul\":490:495   */\n      dup2\n        /* \"#utility.yul\":479:495   */\n      swap1\n      pop\n        /* \"#utility.yul\":425:501   */\n      swap2\n      swap1\n      pop\n      jump\t// out\n        /* \"#utility.yul\":507:622   */\n    tag_38:\n        /* \"#utility.yul\":592:615   */\n      tag_48\n        /* \"#utility.yul\":609:614   */\n      dup2\n        /* \"#utility.yul\":592:615   */\n      tag_37\n      jump\t// in\n    tag_48:\n        /* \"#utility.yul\":587:590   */\n      dup3\n        /* \"#utility.yul\":580:616   */\n      mstore\n        /* \"#utility.yul\":507:622   */\n      pop\n      pop\n      jump\t// out\n        /* \"#utility.yul\":628:1054   */\n    tag_11:\n        /* \"#utility.yul\":769:773   */\n      0x00\n        /* \"#utility.yul\":807:809   */\n      0x60\n        /* \"#utility.yul\":796:805   */\n      dup3\n        /* \"#utility.yul\":792:810   */\n      add\n        /* \"#utility.yul\":784:810   */\n      swap1\n      pop\n        /* \"#utility.yul\":820:891   */\n      tag_50\n        /* \"#utility.yul\":888:889   */\n      0x00\n        /* \"#utility.yul\":877:886   */\n      dup4\n        /* \"#utility.yul\":873:890   */\n      add\n        /* \"#utility.yul\":864:870   */\n      dup7\n        /* \"#utility.yul\":820:891   */\n      tag_34\n      jump\t// in\n    tag_50:\n        /* \"#utility.yul\":901:967   */\n      tag_51\n        /* \"#utility.yul\":963:965   */\n      0x20\n        /* \"#utility.yul\":952:961   */\n      dup4\n        /* \"#utility.yul\":948:966   */\n      add\n        /* \"#utility.yul\":939:945   */\n      dup6\n        /* \"#utility.yul\":901:967   */\n      tag_36\n      jump\t// in\n    tag_51:\n        /* \"#utility.yul\":977:1047   */\n      tag_52\n        /* \"#utility.yul\":1043:1045   */\n      0x40\n        /* \"#utility.yul\":1032:1041   */\n      dup4\n        /* \"#utility.yul\":1028:1046   */\n      add\n        /* \"#utility.yul\":1019:1025   */\n      dup5\n        /* \"#utility.yul\":977:1047   */\n      tag_38\n      jump\t// in\n    tag_52:\n        /* \"#utility.yul\":628:1054   */\n      swap5\n      swap4\n      pop\n      pop\n      pop\n      pop\n      jump\t// out\n        /* \"#utility.yul\":1060:1380   */\n    tag_15:\n        /* \"#utility.yul\":1175:1179   */\n      0x00\n        /* \"#utility.yul\":1213:1215   */\n      0x40\n        /* \"#utility.yul\":1202:1211   */\n      dup3\n        /* \"#utility.yul\":1198:1216   */\n      add\n        /* \"#utility.yul\":1190:1216   */\n      swap1\n      pop\n        /* \"#utility.yul\":1226:1297   */\n      tag_54\n        /* \"#utility.yul\":1294:1295   */\n      0x00\n        /* \"#utility.yul\":1283:1292   */\n      dup4\n        /* \"#utility.yul\":1279:1296   */\n      add\n        /* \"#utility.yul\":1270:1276   */\n      dup6\n        /* \"#utility.yul\":1226:1297   */\n      tag_34\n      jump\t// in\n    tag_54:\n        /* \"#utility.yul\":1307:1373   */\n      tag_55\n        /* \"#utility.yul\":1369:1371   */\n      0x20\n        /* \"#utility.yul\":1358:1367   */\n      dup4\n        /* \"#utility.yul\":1354:1372   */\n      add\n        /* \"#utility.yul\":1345:1351   */\n      dup5\n        /* \"#utility.yul\":1307:1373   */\n      tag_36\n      jump\t// in\n    tag_55:\n        /* \"#utility.yul\":1060:1380   */\n      swap4\n      swap3\n      pop\n      pop\n      pop\n      jump\t// out\n        /* \"#utility.yul\":1386:2038   */\n    tag_19:\n        /* \"#utility.yul\":1585:1589   */\n      0x00\n        /* \"#utility.yul\":1623:1626   */\n      0xa0\n        /* \"#utility.yul\":1612:1621   */\n      dup3\n        /* \"#utility.yul\":1608:1627   */\n      add\n        /* \"#utility.yul\":1600:1627   */\n      swap1\n      pop\n        /* \"#utility.yul\":1637:1708   */\n      tag_57\n        /* \"#utility.yul\":1705:1706   */\n      0x00\n        /* \"#utility.yul\":1694:1703   */\n      dup4\n        /* \"#utility.yul\":1690:1707   */\n      add\n        /* \"#utility.yul\":1681:1687   */\n      dup9\n        /* \"#utility.yul\":1637:1708   */\n      tag_34\n      jump\t// in\n    tag_57:\n        /* \"#utility.yul\":1718:1784   */\n      tag_58\n        /* \"#utility.yul\":1780:1782   */\n      0x20\n        /* \"#utility.yul\":1769:1778   */\n      dup4\n        /* \"#utility.yul\":1765:1783   */\n      add\n        /* \"#utility.yul\":1756:1762   */\n      dup8\n        /* \"#utility.yul\":1718:1784   */\n      tag_36\n      jump\t// in\n    tag_58:\n        /* \"#utility.yul\":1794:1866   */\n      tag_59\n        /* \"#utility.yul\":1862:1864   */\n      0x40\n        /* \"#utility.yul\":1851:1860   */\n      dup4\n        /* \"#utility.yul\":1847:1865   */\n      add\n        /* \"#utility.yul\":1838:1844   */\n      dup7\n        /* \"#utility.yul\":1794:1866   */\n      tag_34\n      jump\t// in\n    tag_59:\n        /* \"#utility.yul\":1876:1948   */\n      tag_60\n        /* \"#utility.yul\":1944:1946   */\n      0x60\n        /* \"#utility.yul\":1933:1942   */\n      dup4\n        /* \"#utility.yul\":1929:1947   */\n      add\n        /* \"#utility.yul\":1920:1926   */\n      dup6\n        /* \"#utility.yul\":1876:1948   */\n      tag_34\n      jump\t// in\n    tag_60:\n        /* \"#utility.yul\":1958:2031   */\n      tag_61\n        /* \"#utility.yul\":2026:2029   */\n      0x80\n        /* \"#utility.yul\":2015:2024   */\n      dup4\n        /* \"#utility.yul\":2011:2030   */\n      add\n        /* \"#utility.yul\":2002:2008   */\n      dup5\n        /* \"#utility.yul\":1958:2031   */\n      tag_34\n      jump\t// in\n    tag_61:\n        /* \"#utility.yul\":1386:2038   */\n      swap7\n      swap6\n      pop\n      pop\n      pop\n      pop\n      pop\n      pop\n      jump\t// out\n        /* \"#utility.yul\":2044:2474   */\n    tag_26:\n        /* \"#utility.yul\":2187:2191   */\n      0x00\n        /* \"#utility.yul\":2225:2227   */\n      0x60\n        /* \"#utility.yul\":2214:2223   */\n      dup3\n        /* \"#utility.yul\":2210:2228   */\n      add\n        /* \"#utility.yul\":2202:2228   */\n      swap1\n      pop\n        /* \"#utility.yul\":2238:2309   */\n      tag_63\n        /* \"#utility.yul\":2306:2307   */\n      0x00\n        /* \"#utility.yul\":2295:2304   */\n      dup4\n        /* \"#utility.yul\":2291:2308   */\n      add\n        /* \"#utility.yul\":2282:2288   */\n      dup7\n        /* \"#utility.yul\":2238:2309   */\n      tag_34\n      jump\t// in\n    tag_63:\n        /* \"#utility.yul\":2319:2385   */\n      tag_64\n        /* \"#utility.yul\":2381:2383   */\n      0x20\n        /* \"#utility.yul\":2370:2379   */\n      dup4\n        /* \"#utility.yul\":2366:2384   */\n      add\n        /* \"#utility.yul\":2357:2363   */\n      dup6\n        /* \"#utility.yul\":2319:2385   */\n      tag_36\n      jump\t// in\n    tag_64:\n        /* \"#utility.yul\":2395:2467   */\n      tag_65\n        /* \"#utility.yul\":2463:2465   */\n      0x40\n        /* \"#utility.yul\":2452:2461   */\n      dup4\n        /* \"#utility.yul\":2448:2466   */\n      add\n        /* \"#utility.yul\":2439:2445   */\n      dup5\n        /* \"#utility.yul\":2395:2467   */\n      tag_34\n      jump\t// in\n    tag_65:\n        /* \"#utility.yul\":2044:2474   */\n      swap5\n      swap4\n      pop\n      pop\n      pop\n      pop\n      jump\t// out\n\n    auxdata: 0xa264697066735822122052bf18aacfa2f7f8fd89800f08cb591e1abe8af41e534d95b7b0497f7c859e3364736f6c63430008110033\n}\n",
				"bytecode": {
					"linkReferences": {},
					"object": "608060405234801561001057600080fd5b50610331806100206000396000f3fe608060405234801561001057600080fd5b50600436106100575760003560e01c80635ea5cabe1461005c578063720579871461007c5780637297237f1461009b5780637367a808146100bd578063e61e4008146100dd575b600080fd5b6100646100fd565b60405161007393929190610211565b60405180910390f35b610084610131565b604051610092929190610248565b60405180910390f35b6100a3610137565b6040516100b4959493929190610271565b60405180910390f35b6100c561017a565b6040516100d493929190610211565b60405180910390f35b6100e56101af565b6040516100f4939291906102c4565b60405180910390f35b60008060006001807fffffffffffffffffffffffffffffffffffffffffffffffffffffffffffffffff925092509250909192565b60008091565b60008060008060008060008061014b6101af565b925092509250600080600a60326014925050915084848484849950995099509950995050505050509091929394565b6000806000601e9250600091507ffffffffffffffffffffffffffffffffffffffffffffffffffffffffffffffff69050909192565b6000806000600180600a925092509250909192565b6000819050919050565b6101d7816101c4565b82525050565b60008115159050919050565b6101f2816101dd565b82525050565b6000819050919050565b61020b816101f8565b82525050565b600060608201905061022660008301866101ce565b61023360208301856101e9565b6102406040830184610202565b949350505050565b600060408201905061025d60008301856101ce565b61026a60208301846101e9565b9392505050565b600060a08201905061028660008301886101ce565b61029360208301876101e9565b6102a060408301866101ce565b6102ad60608301856101ce565b6102ba60808301846101ce565b9695505050505050565b60006060820190506102d960008301866101ce565b6102e660208301856101e9565b6102f360408301846101ce565b94935050505056fea264697066735822122052bf18aacfa2f7f8fd89800f08cb591e1abe8af41e534d95b7b0497f7c859e3364736f6c63430008110033",
					"opcodes": "PUSH1 0x80 PUSH1 0x40 MSTORE CALLVALUE DUP1 ISZERO PUSH2 0x10 JUMPI PUSH1 0x0 DUP1 REVERT JUMPDEST POP PUSH2 0x331 DUP1 PUSH2 0x20 PUSH1 0x0 CODECOPY PUSH1 0x0 RETURN INVALID PUSH1 0x80 PUSH1 0x40 MSTORE CALLVALUE DUP1 ISZERO PUSH2 0x10 JUMPI PUSH1 0x0 DUP1 REVERT JUMPDEST POP PUSH1 0x4 CALLDATASIZE LT PUSH2 0x57 JUMPI PUSH1 0x0 CALLDATALOAD PUSH1 0xE0 SHR DUP1 PUSH4 0x5EA5CABE EQ PUSH2 0x5C JUMPI DUP1 PUSH4 0x72057987 EQ PUSH2 0x7C JUMPI DUP1 PUSH4 0x7297237F EQ PUSH2 0x9B JUMPI DUP1 PUSH4 0x7367A808 EQ PUSH2 0xBD JUMPI DUP1 PUSH4 0xE61E4008 EQ PUSH2 0xDD JUMPI JUMPDEST PUSH1 0x0 DUP1 REVERT JUMPDEST PUSH2 0x64 PUSH2 0xFD JUMP JUMPDEST PUSH1 0x40 MLOAD PUSH2 0x73 SWAP4 SWAP3 SWAP2 SWAP1 PUSH2 0x211 JUMP JUMPDEST PUSH1 0x40 MLOAD DUP1 SWAP2 SUB SWAP1 RETURN JUMPDEST PUSH2 0x84 PUSH2 0x131 JUMP JUMPDEST PUSH1 0x40 MLOAD PUSH2 0x92 SWAP3 SWAP2 SWAP1 PUSH2 0x248 JUMP JUMPDEST PUSH1 0x40 MLOAD DUP1 SWAP2 SUB SWAP1 RETURN JUMPDEST PUSH2 0xA3 PUSH2 0x137 JUMP JUMPDEST PUSH1 0x40 MLOAD PUSH2 0xB4 SWAP6 SWAP5 SWAP4 SWAP3 SWAP2 SWAP1 PUSH2 0x271 JUMP JUMPDEST PUSH1 0x40 MLOAD DUP1 SWAP2 SUB SWAP1 RETURN JUMPDEST PUSH2 0xC5 PUSH2 0x17A JUMP JUMPDEST PUSH1 0x40 MLOAD PUSH2 0xD4 SWAP4 SWAP3 SWAP2 SWAP1 PUSH2 0x211 JUMP JUMPDEST PUSH1 0x40 MLOAD DUP1 SWAP2 SUB SWAP1 RETURN JUMPDEST PUSH2 0xE5 PUSH2 0x1AF JUMP JUMPDEST PUSH1 0x40 MLOAD PUSH2 0xF4 SWAP4 SWAP3 SWAP2 SWAP1 PUSH2 0x2C4 JUMP JUMPDEST PUSH1 0x40 MLOAD DUP1 SWAP2 SUB SWAP1 RETURN JUMPDEST PUSH1 0x0 DUP1 PUSH1 0x0 PUSH1 0x1 DUP1 PUSH32 0xFFFFFFFFFFFFFFFFFFFFFFFFFFFFFFFFFFFFFFFFFFFFFFFFFFFFFFFFFFFFFFFF SWAP3 POP SWAP3 POP SWAP3 POP SWAP1 SWAP2 SWAP3 JUMP JUMPDEST PUSH1 0x0 DUP1 SWAP2 JUMP JUMPDEST PUSH1 0x0 DUP1 PUSH1 0x0 DUP1 PUSH1 0x0 DUP1 PUSH1 0x0 DUP1 PUSH2 0x14B PUSH2 0x1AF JUMP JUMPDEST SWAP3 POP SWAP3 POP SWAP3 POP PUSH1 0x0 DUP1 PUSH1 0xA PUSH1 0x32 PUSH1 0x14 SWAP3 POP POP SWAP2 POP DUP5 DUP5 DUP5 DUP5 DUP5 SWAP10 POP SWAP10 POP SWAP10 POP SWAP10 POP SWAP10 POP POP POP POP POP POP SWAP1 SWAP2 SWAP3 SWAP4 SWAP5 JUMP JUMPDEST PUSH1 0x0 DUP1 PUSH1 0x0 PUSH1 0x1E SWAP3 POP PUSH1 0x0 SWAP2 POP PUSH32 0xFFFFFFFFFFFFFFFFFFFFFFFFFFFFFFFFFFFFFFFFFFFFFFFFFFFFFFFFFFFFFFF6 SWAP1 POP SWAP1 SWAP2 SWAP3 JUMP JUMPDEST PUSH1 0x0 DUP1 PUSH1 0x0 PUSH1 0x1 DUP1 PUSH1 0xA SWAP3 POP SWAP3 POP SWAP3 POP SWAP1 SWAP2 SWAP3 JUMP JUMPDEST PUSH1 0x0 DUP2 SWAP1 POP SWAP2 SWAP1 POP JUMP JUMPDEST PUSH2 0x1D7 DUP2 PUSH2 0x1C4 JUMP JUMPDEST DUP3 MSTORE POP POP JUMP JUMPDEST PUSH1 0x0 DUP2 ISZERO ISZERO SWAP1 POP SWAP2 SWAP1 POP JUMP JUMPDEST PUSH2 0x1F2 DUP2 PUSH2 0x1DD JUMP JUMPDEST DUP3 MSTORE POP POP JUMP JUMPDEST PUSH1 0x0 DUP2 SWAP1 POP SWAP2 SWAP1 POP JUMP JUMPDEST PUSH2 0x20B DUP2 PUSH2 0x1F8 JUMP JUMPDEST DUP3 MSTORE POP POP JUMP JUMPDEST PUSH1 0x0 PUSH1 0x60 DUP3 ADD SWAP1 POP PUSH2 0x226 PUSH1 0x0 DUP4 ADD DUP7 PUSH2 0x1CE JUMP JUMPDEST PUSH2 0x233 PUSH1 0x20 DUP4 ADD DUP6 PUSH2 0x1E9 JUMP JUMPDEST PUSH2 0x240 PUSH1 0x40 DUP4 ADD DUP5 PUSH2 0x202 JUMP JUMPDEST SWAP5 SWAP4 POP POP POP POP JUMP JUMPDEST PUSH1 0x0 PUSH1 0x40 DUP3 ADD SWAP1 POP PUSH2 0x25D PUSH1 0x0 DUP4 ADD DUP6 PUSH2 0x1CE JUMP JUMPDEST PUSH2 0x26A PUSH1 0x20 DUP4 ADD DUP5 PUSH2 0x1E9 JUMP JUMPDEST SWAP4 SWAP3 POP POP POP JUMP JUMPDEST PUSH1 0x0 PUSH1 0xA0 DUP3 ADD SWAP1 POP PUSH2 0x286 PUSH1 0x0 DUP4 ADD DUP9 PUSH2 0x1CE JUMP JUMPDEST PUSH2 0x293 PUSH1 0x20 DUP4 ADD DUP8 PUSH2 0x1E9 JUMP JUMPDEST PUSH2 0x2A0 PUSH1 0x40 DUP4 ADD DUP7 PUSH2 0x1CE JUMP JUMPDEST PUSH2 0x2AD PUSH1 0x60 DUP4 ADD DUP6 PUSH2 0x1CE JUMP JUMPDEST PUSH2 0x2BA PUSH1 0x80 DUP4 ADD DUP5 PUSH2 0x1CE JUMP JUMPDEST SWAP7 SWAP6 POP POP POP POP POP POP JUMP JUMPDEST PUSH1 0x0 PUSH1 0x60 DUP3 ADD SWAP1 POP PUSH2 0x2D9 PUSH1 0x0 DUP4 ADD DUP7 PUSH2 0x1CE JUMP JUMPDEST PUSH2 0x2E6 PUSH1 0x20 DUP4 ADD DUP6 PUSH2 0x1E9 JUMP JUMPDEST PUSH2 0x2F3 PUSH1 0x40 DUP4 ADD DUP5 PUSH2 0x1CE JUMP JUMPDEST SWAP5 SWAP4 POP POP POP POP JUMP INVALID LOG2 PUSH5 0x6970667358 0x22 SLT KECCAK256 MSTORE 0xBF XOR 0xAA 0xCF LOG2 0xF7 0xF8 REVERT DUP10 DUP1 0xF ADDMOD 0xCB MSIZE 0x1E BYTE 0xBE DUP11 DELEGATECALL 0x1E MSTORE8 0x4D SWAP6 0xB7 0xB0 0x49 PUSH32 0x7C859E3364736F6C634300081100330000000000000000000000000000000000 "
				},
				"gasEstimates": {
					"creation": {
						"codeDepositCost": "163400",
						"executionCost": "208",
						"totalCost": "163608"
					},
					"external": {
						"AssignValue()": "615",
						"callFuncWithKeyValue()": "438",
						"destructuring()": "infinite",
						"returnMultiple()": "infinite",
						"returnName()": "549"
					}
				},
				"methodIdentifiers": {
					"AssignValue()": "7367a808",
					"callFuncWithKeyValue()": "72057987",
					"destructuring()": "7297237f",
					"returnMultiple()": "e61e4008",
					"returnName()": "5ea5cabe"
				}
			},
			"storageLayout": {
				"storage": [],
				"types": null
			},
			"userdoc": {
				"kind": "user",
				"methods": {},
				"version": 1
			}
		}
	}
}